:040000004AEF00F0D3
:100008006E82FACF56F0FBCF57F0E9CF58F0EACF1F
:1000180059F0E1CF5AF0E2CF5BF0D9CF5CF0DACFFC
:100028005DF0F3CF5EF0F4CF5FF0F6CF60F0F7CF7E
:1000380061F0F8CF62F0F5CF63F0CD909E906C4AF6
:100048006D2A1E4A1F2AFC0ECF6E170ECE6ECD806B
:1000580063C0F5FF62C0F8FF61C0F7FF60C0F6FF3C
:100068005FC0F4FF5EC0F3FF5DC0DAFF5CC0D9FF7C
:100078005BC0E2FF5AC0E1FF59C0EAFF58C0E9FF80
:1000880057C0FBFF56C0FAFF6E921100FBEF03F05A
:10009800FD0E826E910E946E700ED36EC00E9B6E26
:1000A800D09ED59E000ED76E000ED66ED59CD59AE2
:1000B800D598D586F294F29ACD90300ECD6ECF6851
:1000C800CE68CD809E909D809D90000E6D6E000E36
:1000D8006C6E9D80F28EF28CC180C182C184C18613
:1000E800806892688168000E936EAB9EAB98AC9A5C
:1000F800AC94AC92CF0EAF6EB896B88CAB8EAB8882
:10010800AC84AC82AC8A9D90000E6D6E000E6C6E55
:100118009D806C506D10D8B4FCD7000EABB4010EA6
:10012800286E000EABB2010E286EAECF28F0828486
:10013800000E286E090E286401D00ED09D90000E86
:100148006D6E000E6C6E9D80E80E6C5C030E6D5833
:10015800D8A0FAD7282AEED7C69A030E646E000EE6
:10016800656E020EA6EC03F09D90000E6D6E000EFB
:100178006C6E9D806D5004E1C80E6C5CD8A0FAD7F7
:10018800000E286E140E286401D039D02850010DB5
:10019800310EF324D96E000EF420DA6EDF50646E4F
:1001A8002850ABEC04F02850010D310EF324D96E21
:1001B800000EF420DA6EDF50646E2850200FABEC8E
:1001C80004F02850010D310EF324D96E000EF420EE
:1001D800DA6EDF50646E2850400FABEC04F0285004
:1001E800010D310EF324D96E000EF420DA6EDF50C3
:1001F800646E2850600FABEC04F0282AC3D7000EB9
:10020800266E000E24EC06F0010E24EC06F0020E19
:1002180024EC06F0030E24EC06F0000E286E030E04
:10022800286401D011D0285067EC04F00009D8A444
:1002380009D0285033EC04F00009D8B403D0285072
:100248008CEC02F0282AEBD7000E2E6E000E226EE0
:100258005CD182A02CD12650D8B418D09E909D8015
:100268009D90000E6D6E000E6C6E9D80000E24EC4D
:1002780006F0010E24EC06F0020E24EC06F0030E44
:1002880024EC06F0000E266E000E2F6E9EAAE1D713
:100298002BEC06F02D6E03D1000E05D0010E03D015
:1002A800020E01D0030E276E8FD02D50410AD8B40C
:1002B800F9D7190AD8B4F0D7010AD8B4EFD7030A86
:1002C800D8B4EED73B0AD8B4EDD7190AD8B4E4D7D6
:1002D800010AD8B4E3D7030AD8B4E2D775D0520ECE
:1002E8000DEC06F0B6D72750A1EC05F02A500DEC1E
:1002F80006F02B500DEC06F02C500DEC06F02750B4
:1003080071EC05F02A500DEC06F02B500DEC06F0C0
:10031800275065EC05F02A500DEC06F02B500DEC3B
:1003280006F02C500DEC06F0275011EC05F02A5081
:100338000DEC06F0275035EC05F02A500DEC06F0D0
:1003480027501DEC05F02A500DEC06F0275029EC3B
:1003580005F02A500DEC06F0275095EC05F02A50D0
:100368000DEC06F0275059EC05F02A500DEC06F07C
:10037800275041EC05F02A500DEC06F0275089EC87
:1003880005F02A500DEC06F027507DEC05F02A50B8
:100398000DEC06F02B500DEC06F028504DEC05F056
:1003A8002A500DEC06F02B500DEC06F0000E0DEC6B
:1003B80006F04FD7000E2E6E000E226E010E2F6E25
:1003C8002D500DEC06F045D72D50410AD8B4F2D780
:1003D800190AD8B4EFD7010AD8B4ECD7030AD8B4AD
:1003E800E9D73B0AD8B47FD7170AD8B478D70E0A0A
:1003F800D8B479D7010AD8B476D7030AD8B473D752
:1004080028D72E50010D010EF324D96E000EF420CA
:10041800DA6E2DC0DFFF2D5022262E2A150E2E60F3
:1004280004D02D500DEC06F014D72250D8B40AD0C1
:1004380030D0000E05D0200E03D0400E01D0600E43
:10044800236E0DD02750000AD8B4F3D7010AD8B4C8
:10045800F2D7030AD8B4F1D7010AD8B4F0D7000EFE
:10046800286E140E286401D010D02850010D010EFA
:10047800F324D96E000EF420DA6EDF50646E235038
:100488002824ABEC04F0282AECD727508CEC02F097
:1004980002D022C02DF02D500DEC06F036D02F5092
:1004A800000AD8B402D7010AD8B4ABD7D2D626509E
:1004B800D8A429D09E909D909D90000E6D6E000E40
:1004C8006C6E9D8080CF81FF000E286E030E28641D
:1004D80001D014D0285067EC04F00009D8A40CD03F
:1004E800285033EC04F00009D8B406D0285003ECA7
:1004F80005F028501DEC06F0282AE8D7010E266ED4
:1005080002D080CF81FF82A0FCD7000E2F6EA1D62B
:100518006B6E6B504EEC04F0296E295015EC06F00A
:100528002A6E292815EC06F02B6E2950020F15ECBF
:1005380006F02C6E6B5095EC04F02950030F15EC67
:1005480006F02A6E2950040F15EC06F02B6E6B503E
:10055800D2EC04F02950050F15EC06F02A6E29504C
:10056800060F15EC06F02B6E2950070F15EC06F058
:100578002C6E6B507FEC04F02950080F15EC06F038
:100588002A6E6B50ADEC05F02950090F15EC06F0FA
:100598002A6E6B50D1EC05F029500A0F15EC06F0C5
:1005A8002A6E6B50B9EC05F029500B0F15EC06F0CC
:1005B8002A6E6B50C5EC05F029500C0F15EC06F0AF
:1005C8002A6E6B5001EC06F029500D0F15EC06F061
:1005D8002A6E6B50E9EC05F029500E0F15EC06F069
:1005E8002A6E6B50DDEC05F029500F0F15EC06F064
:1005F8002A6E6B50F5EC05F0000E2A6E000E2B6E7D
:10060800000E2C6E6B5095EC04F06B50D2EC04F09D
:100618006B507FEC04F02950100F15EC06F02A6E91
:100628002950110F15EC06F02B6E6B50E3EC04F01B
:100638001200686E8294000E656E0A0E646E18ECE5
:1006480004F0000EF4EC04F00009D8A4FAD7C9CFDE
:1006580016F0000EF4EC04F00009D8A4FAD7C9CFBC
:1006680017F0000EF4EC04F00009D8A4FAD7C9CFAB
:1006780018F0000EF4EC04F00009D8A4FAD7C9CF9A
:1006880019F08284000E656E0A0E646E18EC04F090
:100698006850D8A402D0195012006804D8A402D017
:1006A80018501200020E6818D8A402D01750120071
:1006B800030E6818D8A402D016501200000E1200BB
:1006C800696E8294000E656E0A0E646E18EC04F072
:1006D800000E1D6E1DC01CF01CC01BF01BC01AF0C4
:1006E8006850D8B469C01DF06804D8B469C01CF05B
:1006F800020E6818D8B469C01BF0030E6818D8B485
:1007080069C01AF01A50F4EC04F00009D8A4FAD71A
:100718001B50F4EC04F00009D8A4FAD71C50F4ECF0
:1007280004F00009D8A4FAD71D50F4EC04F000092D
:10073800D8A4FAD78284000E656E0A0E646E18EC8F
:1007480004F01200666E3F0EC716000EC66E6650A5
:10075800C6126550C71205D0C78C15D0C78CC6887D
:1007680012D06450000AD8B4F7D7020AD8B4F6D722
:10077800010AD8B4F4D707D09486928A0CD094860C
:100788000AD0949608D06650040AD8B4F5D7010A5E
:10079800D8B4F5D7F6D79488949AC68A12006A6EA8
:1007A8001BD069501DEC03F02A6E120069501DEC35
:1007B80003F02A6E69501DEC03F02B6E120069508D
:1007C8001DEC03F02A6E69501DEC03F02B6E695086
:1007D8001DEC03F02C6E12006A50010AD8B4E1D760
:1007E800030AD8B4E3D7010AD8A41200E8D77E0ECA
:1007F800F66E090EF76E000EF86E00EE31F010EE90
:1008080025F00900F5CFEEFFE550E150FAE100EEE2
:1008180001F0300EEE6AE806FDE16E906E92000E71
:10082800F86E00014CEF00F012D0000E676E000E5B
:10083800666E67BE06D0675007E1300E665CD8B0BA
:1008480003D0664A672AF5D76406D8A0650665BE50
:1008580012006550EAE16404D8A01200E6D7656E7C
:1008680065504EEC04F0296E000E216E000E206ECD
:10087800140E206401D007D02950202415EC06F06E
:100888002126202AF5D72150D8A402D0010E120023
:10089800000E1200646E6450D8A402D0000E12003C
:1008A8006404D8A402D0200E1200020E6418D8A442
:1008B80002D0400E1200030E6418D8A402D0600EB5
:1008C8001200600E1200656E65504EEC04F0296E41
:1008D800000E206E140E206401D00BD02950202465
:1008E80015EC06F0FF0AD8B402D0000E1200202A38
:1008F800F1D7010E12006A6E6AC068F0030E64EC4C
:1009080003F06AC068F02A5064EC03F06AC068F02B
:100918002B5064EC03F06AC068F02C5064EC03F0D0
:1009280012006A6E6AC068F0010E64EC03F06AC0D7
:1009380068F02A5064EC03F06AC068F02B5064EC4D
:1009480003F06AC068F02C5064EC03F01200656E86
:10095800A19865C0A9FF64C0A8FFA69EA69CA6840E
:10096800F29E550EA76EAA0EA76EA682A1A8FED764
:10097800F28EA6941200000000000000000020196A
:100988002929000889FF2E8800002F30313233349E
:0B0998003536373839616263646566EC
:1009A4006A6E6AC068F0020E64EC03F06AC068F014
:1009B4002A5064EC03F06AC068F02B5064EC03F036
:1009C40012006A6E6AC068F0180E64EC03F06AC024
:1009D40068F02A5064EC03F06AC068F02B5064ECB1
:1009E40003F01200656EC9CF64F09E96C69E65C082
:1009F400C9FFC6AE02D0FF0E12009EA6FED7000E9F
:100A040012006B6E000E2A6E000E2B6E000E2C6E02
:100A14006B5095EC04F06B50D2EC04F012006B6E4A
:100A24006BC068F0290E64EC03F06BC069F0010E32
:100A3400D3EC03F012006B6E6BC068F02F0E64EC05
:100A440003F06BC069F0010ED3EC03F012006B6E7F
:100A54006BC068F0300E64EC03F06BC069F0010EFB
:100A6400D3EC03F012006B6E6BC068F02E0E64ECD6
:100A740003F06BC069F0010ED3EC03F012006B6E4F
:100A84006BC068F0360E64EC03F06BC069F0010EC5
:100A9400D3EC03F012006B6E6BC068F0D00E64EC04
:100AA40003F06BC069F0020ED3EC03F012006B6E1E
:100AB4006BC068F0330E64EC03F06BC069F0010E98
:100AC400D3EC03F012006B6E6BC068F0230E64EC81
:100AD40003F06BC069F0030ED3EC03F012006B6EED
:100AE4006BC068F0220E64EC03F06BC069F0020E78
:100AF400D3EC03F012006B6E6BC068F0380E64EC3C
:100B040003F06BC069F0020ED3EC03F012006B6EBD
:100B14006BC068F0370E64EC03F06BC069F0010E33
:100B2400D3EC03F012006B6E6BC068F0320E64EC11
:100B340003F06BC069F0010ED3EC03F012006B6E8E
:100B44006BC068F0210E64EC03F06BC069F0030E17
:100B5400D3EC03F012006A6E6AC068F0090E64EC0C
:100B640003F06AC068F02A5064EC03F012006A6E65
:100B74006AC068F00F0E64EC03F06AC068F02A5093
:100B840064EC03F012006A6E6AC068F0100E64EC44
:100B940003F06AC068F02A5064EC03F012006A6E35
:100BA4006AC068F00E0E64EC03F06AC068F02A5064
:100BB40064EC03F012006A6E6AC068F0160E64EC0E
:100BC40003F06AC068F02A5064EC03F012006A6E05
:100BD4006AC068F0130E64EC03F06AC068F02A502F
:100BE40064EC03F012006A6E6AC068F0170E64ECDD
:100BF40003F06AC068F02A5064EC03F012006A6ED5
:100C04006AC068F0120E64EC03F06AC068F02A50FF
:100C140064EC03F01200646E9EA8FED764C0ADFFBE
:100C24009EB81200FDD7646E64C0A9FFA69EA69C60
:100C3400A680A85012006A6E6AC068F0B80E64EC10
:100C440003F012006A6E6AC068F0A80E64EC03F048
:0E0C540012009EAAFED7AECF64F064501200CC
:020000040020DA
:08000000FFFFFFFFFFFFFFFF00
:020000040030CA
:0E000000FF08161EFF0180FF03C003E003404F
:00000001FF
