:020000040000FA
:04000000000E04D01A
:0800080004EF02F010D0F66EC7
:06001000040EF76E03D0A0
:080018000CEF02F0000EF86E7F
:100020000900F53C00EF02F00900F53CFBD7C18068
:10003000C182C184C186928092829284949C829C67
:1000400020EE00F00000000067D90F0AFDE10F0E5E
:100050001BD900EE04F060D90F0AF9E00250040A3F
:1000600007E00250050A01E157D902C0ECFFF3D7BF
:1000700010EE05F0006A016AEDCFF4FFE6502FD8CC
:10008000E250EA62FBD7E150E962F8D70150F4622E
:10009000DBD70050EF62D8D7006A016A0650F66ECF
:1000A000A96E0750F76E08C0F8FF00EE0BF00A0EBD
:1000B0000560CAD7F9500544F92627D02FD039D08A
:1000C0004FD07CD0A8D0B0D0BAD0ACD7FF000000C1
:1000D000F2B4120082BEFCD782AEFED71200011825
:1000E00000C001F0006EE83A0F0B001A0038F00B68
:1000F000011A0038E844011AE00B011A001A120034
:1001000000030105FF8400000000000EF66E010EE2
:10011000F76E000EF86E0A0E0A6E0B6A0900F550B3
:10012000A3D8DDDF0A06000E0B5A0A500B10F6E1C9
:1001300094D00900F550D3DFF6503F0BFAE10050A0
:1001400034EC01F0015034EC01F00A06000E0B5AB9
:100150000A500B10EEE185D0FF00FF00FF00FF000A
:10016000C00EF616000EF65C200EF758000EF8587A
:1001700002E6A66A17D0000EF65C000EF758000ED5
:10018000F8580DE6000EF65C030EF758000EF8580E
:1001900006E7A66A07D0FF00FF00FF00FF00940EED
:1001A000A66EC3D8400EF65EE86AF75AF85A0A2ED1
:1001B000D7D74FD0FF00FF00FF00FF00F80EF61664
:1001C000000EF65C200EF758000EF85802E6A66AFC
:1001D00016D0000EF65C000EF758000EF8580DE62B
:1001E000000EF65C030EF758000EF85806E7A66AF4
:1001F00006D0FF00FF00FF00FF00840EA66EEECFCA
:10020000F5FF0D00F650070BFAE10A008ED8090041
:100210000A2ED4D71ED0A66AA680A850A92A24D810
:100220005EDF0A2EF9D719D0040EA66EECCFA8FF18
:100230007CD8A6B2FED7A92A0A2EF8D70AD0C40EB7
:10024000A66E0800EE50F5626ED80B000A2EFAD7A3
:1002500000D0A66A055008D842DF005005D80150EA
:1002600003D8040E11D8F0D6036E0F0A06E003502F
:10027000040A03E00350050A02E1050E02D0035010
:1002800003D078EC01F0035078EC01F01200024248
:1002900080B4FF0080A0FCD780A250EF01F0028E56
:1002A00080B4FF0080B0FCD71200026A47EC01F076
:1002B00047EC01F047EC01F047EC01F047EC01F0AE
:1002C00047EC01F047EC01F047EC01F00250829C52
:1002D000120080B4FF0080A0FCD7043203E2829CAD
:1002E00073EF01F0828C80B4FF0080B0FCD7120065
:1002F000828C046E69EC01F069EC01F069EC01F0AC
:1003000069EC01F069EC01F069EC01F069EC01F0D5
:1003100069EC01F0829C120055EC01F01200FF0024
:10032000FF00FF00A66AF56E0C00550EA76EAA0E20
:08033000A76EA6820000120076
:020000040030CA
:0100010008F6
:0100020016E7
:010003001EDE
:0100050001F9
:010006009069
:0100080003F4
:01000900C036
:01000A0003F2
:01000B00A054
:01000C0003F0
:01000D0040B2
:00000001FF
