:020000040000FA
:04000000000E04D01A
:0800080004EF02F010D0F66EC7
:06001000040EF76E03D0A0
:080018000CEF02F0000EF86E7F
:100020000900F53C00EF02F00900F53CFBD7C18068
:10003000C182C184C186928092829284949C829C67
:10004000029080B400EF00F080A0FBD780B2028065
:1000500080B400EF00F080B0FBD7029280B400EFD4
:1000600000F080A0FBD780B2028280B400EF00F0E5
:1000700080B0FBD7029480B400EF00F080A0FBD7E3
:1000800080B2028480B400EF00F080B0FBD702960B
:1000900080B400EF00F080A0FBD780B2028680B46D
:1000A00000EF00F080B0FBD7029880B400EF00F0C2
:1000B00080A0FBD780B2028880B400EF00F080B04F
:1000C000FBD7029A80B400EF00F080A0FBD780B28B
:1000D000028A80B400EF00F080B0FBD7029C80B4AD
:1000E00000EF00F080A0FBD780B2028C80B400EF5C
:1000F00000F080B0FBD7029E80B400EF00F080A03B
:10010000FBD780B2028E80B400EF00F080B0FBD746
:100110000250829C0250036E828C80B400EF00F08B
:1001200080A0FBD703B098EF00F0829C9BEF00F01B
:10013000828C9BEF00F080B400EF00F080B0FBD722
:1001400080B400EF00F080A0FBD703B2ABEF00F06B
:10015000829CAEEF00F0828CAEEF00F080B400EF36
:1001600000F080B0FBD780B400EF00F080A0FBD798
:1001700003B4BEEF00F0829CC1EF00F0828CC1EFAF
:1001800000F080B400EF00F080B0FBD780B400EF47
:1001900000F080A0FBD703B6D1EF00F0829CD4EF33
:1001A00000F0828CD4EF00F080B400EF00F080B05B
:1001B000FBD780B400EF00F080A0FBD703B8E4EFDA
:1001C00000F0829CE7EF00F0828CE7EF00F080B453
:1001D00000EF00F080B0FBD780B400EF00F080A00B
:1001E000FBD703BAF7EF00F0829CFAEF00F0828CA5
:1001F000FAEF00F080B400EF00F080B0FBD780B4DD
:1002000000EF00F080A0FBD703BC0AEF01F0829C56
:100210000DEF01F0828C0DEF01F080B400EF00F0E3
:1002200080B0FBD780B400EF00F080A0FBD703BE06
:100230001DEF01F0829C20EF01F0828C20EF01F095
:1002400080B400EF00F080B0FBD7829CF9D620EE9E
:1002500000F0700ED3129B8CB6D90F0AFDE10F0E81
:1002600017D900EE04F0AFD90F0AF9E00250040AE2
:1002700007E00250050A01E1A6D902C0ECFFF3D75E
:1002800010EE05F0006A016AEDCFF4FFE6502FD8BA
:10029000E250EA62FBD7E150E962F8D70150F4621C
:1002A000DBD70050EF62D8D7006A016A0650F66EBD
:1002B000A96E0750F76E08C0F8FF00EE0BF00A0EAB
:1002C0000560CAD7F9500544F92627D02FD039D078
:1002D0004FD07CD0A8D0B0D0BAD0A4D6FF000000B8
:1002E000F2B4120082BEFCD782AEFED71200011813
:1002F00000C001F0006EE83A0F0B001A0038F00B56
:10030000011A0038E844011AE00B011A001A120021
:1003100000030105FF8400000000100EF66E030EBE
:10032000F76E000EF86E0A0E0A6E0B6A0900F550A1
:10033000A3D8DDDF0A06000E0B5A0A500B10F6E1B7
:1003400094D00900F550D3DFF6503F0BFAE100508E
:100350003CEC02F001503CEC02F00A06000E0B5A95
:100360000A500B10EEE185D0FF00FF00FF00FF00F8
:10037000C00EF616000EF65C200EF758000EF85868
:1003800002E6A66A17D0000EF65C000EF758000EC3
:10039000F8580DE6000EF65C030EF758000EF858FC
:1003A00006E7A66A07D0FF00FF00FF00FF00940EDB
:1003B000A66E7AD9400EF65EE86AF75AF85A0A2E07
:1003C000D7D74FD0FF00FF00FF00FF00F80EF61652
:1003D000000EF65C200EF758000EF85802E6A66AEA
:1003E00016D0000EF65C000EF758000EF8580DE619
:1003F000000EF65C030EF758000EF85806E7A66AE2
:1004000006D0FF00FF00FF00FF00840EA66EEECFB7
:10041000F5FF0D00F650070BFAE10A0045D9090077
:100420000A2ED4D71ED0A66AA680A850A92A24D8FE
:100430005EDF0A2EF9D719D0040EA66EECCFA8FF06
:1004400033D9A6B2FED7A92A0A2EF8D70AD0C40EED
:10045000A66E0800EE50F56225D90B000A2EFAD7D9
:1004600000D0A66A055008D842DF005005D80150D8
:1004700003D8040E0DD8F0D6036E0F0A06E0035021
:10048000040A03E00350050A02E1050E01D80350F7
:10049000828C80B400EF00F080A0FBD703B054EF53
:1004A00002F0829C57EF02F0828C57EF02F080B48A
:1004B00000EF00F080B0FBD780B400EF00F080A028
:1004C000FBD703B267EF02F0829C6AEF02F0828CE6
:1004D0006AEF02F080B400EF00F080B0FBD780B488
:1004E00000EF00F080A0FBD703B47AEF02F0829C0B
:1004F0007DEF02F0828C7DEF02F080B400EF00F01F
:1005000080B0FBD780B400EF00F080A0FBD703B62B
:100510008DEF02F0829C90EF02F0828C90EF02F05F
:1005200080B400EF00F080B0FBD780B400EF00F0A3
:1005300080A0FBD703B8A0EF02F0829CA3EF02F0EB
:10054000828CA3EF02F080B400EF00F080B0FBD704
:1005500080B400EF00F080A0FBD703BAB3EF02F045
:10056000829CB6EF02F0828CB6EF02F080B400EF0E
:1005700000F080B0FBD780B400EF00F080A0FBD784
:1005800003BCC6EF02F0829CC9EF02F0828CC9EF77
:1005900002F080B400EF00F080B0FBD780B400EF31
:1005A00000F080A0FBD703BED9EF02F0829CDCEF05
:1005B00002F0828CDCEF02F080B400EF00F080B03B
:1005C000FBD7829C1200029080B400EF00F080A064
:1005D000FBD780B2028080B400EF00F080B0FBD780
:1005E000029280B400EF00F080A0FBD780B20282BC
:1005F00080B400EF00F080B0FBD7029480B400EF2D
:1006000000F080A0FBD780B2028480B400EF00F03D
:1006100080B0FBD7029680B400EF00F080A0FBD73B
:1006200080B2028680B400EF00F080B0FBD7029861
:1006300080B400EF00F080A0FBD780B2028880B4C5
:1006400000EF00F080B0FBD7029A80B400EF00F01A
:1006500080A0FBD780B2028A80B400EF00F080B0A7
:10066000FBD7029C80B400EF00F080A0FBD780B2E3
:10067000028C80B400EF00F080B0FBD7029E80B403
:1006800000EF00F080A0FBD780B2028E80B400EFB4
:1006900000F080B0FBD70250829C1200FF00FF00E8
:1006A000FF00A66AF56E0C00550EA76EAA0EA76E87
:0606B000A682000012000A
:020000040030CA
:0100010008F6
:0100020016E7
:010003001EDE
:0100050001F9
:010006008079
:0100080000F7
:01000900C036
:01000A0003F2
:01000B00E014
:01000C0003F0
:01000D0040B2
:00000001FF
